:060000000A128A1110280B
:10000800FE00030E83160313AD000A08AE007F0836
:10001800AF000A128A15542D0A128A111328831662
:100028000313B001B101B20183010A128A11E22F50
:10003800831203133D088039C2004208C7003D08F7
:10004800C2004207C3004308CD00BC1F2C282D283E
:100058002E284D144D0803193228332842284D0AFA
:10006800031D3728382840280030BD000030BC0068
:100078000030BB000030BA00BC174A280030BD0071
:100088000030BC000030BB000030BA0041088039A5
:10009800C2004208C7064108C2004207C30043081D
:1000A800CC00C01F582859285A284C144C0803194A
:1000B8005E285F286E284C0A031D632864286C2874
:1000C8000030C1000030C0000030BF000030BE006A
:1000D800C01776280030C1000030C0000030BF00D3
:1000E8000030BE004C0803197A287B2880284D0868
:1000F800031D7F28802889280030BD000030BC00FF
:100108000030BB000030BA007C2B3A08C20042081D
:10011800F00040080A128A152D250A128A11710862
:1001280083120313D3007008D2005208C200C3011F
:10013800C401C5014508CB004408CA004308C900EA
:100148004208C8005308C200C301C401C5014508DC
:10015800D1004408D0004308CF004208CE003B0835
:10016800C2004208F0003F080A128A152D250A121B
:100178008A11710883120313D3007008D200520841
:10018800C200C301C401C5014208C80743080311DE
:100198000318013E0319D128C9074408031103189D
:1001A800013E0319D828CA07450803110318013E60
:1001B8000319DF28CB075308C200C301C401C501D6
:1001C8004208CE07430803110318013E0319ED281E
:1001D800CF07440803110318013E0319F428D00778
:1001E800450803110318013E0319FB28D1073C08F1
:1001F800C2004208F0003E080A128A152D250A128C
:100208008A11710883120313D3007008D2005208B0
:10021800C200C301C401C5014208C807430803114D
:100228000318013E03191929C907440803110318C3
:10023800013E03192029CA07450803110318013E86
:1002480003192729CB075308C200C301C401C501FC
:100258004208CE07430803110318013E0319352944
:10026800CF07440803110318013E03193C29D0079E
:10027800450803110318013E03194329D107083023
:10028800C2000310C80DC90DCA0DCB0DC20B4529FC
:100298003B08C2004208F0003E080A128A152D25C4
:1002A8000A128A11710883120313D3007008D2004E
:1002B8005208C2005308C300C401C5014208C80758
:1002C800430803110318013E03196B29C9074408A1
:1002D80003110318013E03197229CA0745080311BF
:1002E8000318013E03197929CB073A08C2004208CE
:1002F800F0003F080A128A152D250A128A11710882
:1003080083120313D3007008D2005208C2005308A6
:10031800C300C401C5014208C807430803110318F4
:10032800013E03199829C907440803110318013E1F
:1003380003199F29CA07450803110318013E031929
:10034800A629CB070830C2000310C80DC90DCA0D75
:10035800CB0DC20BA8293A08C2004208F0003E089B
:100368000A128A152D250A128A117108831203139D
:10037800D3007008D2005208C2005308C300C40159
:10038800C5014208C807430803110318013E0319B1
:10039800CE29C907440803110318013E0319D529BA
:1003A800CA07450803110318013E0319DC29CB07C6
:1003B8003B08C2004208F00040080A128A152D25A1
:1003C8000A128A11710883120313D3007008D2002D
:1003D8005208C2005308C300C401C5014208CE0731
:1003E800430803110318013E0319FB29CF074408EA
:1003F80003110318013E0319022AD0074508031107
:100408000318013E0319092AD1073C08C200420813
:10041800F0003F080A128A152D250A128A11710860
:1004280083120313D3007008D2005208C200530885
:10043800C300C401C5014208CE07430803110318CD
:10044800013E0319282ACF07440803110318013E67
:1004580003192F2AD007450803110318013E031971
:10046800362AD1073C08C2004208F00040080A12A8
:100478008A152D250A128A11710883120313D300D5
:100488007008D2005208C2005308C300C401C50155
:1004980008300310C20DC30DC40DC50DFF3E031D6A
:1004A8004D2A4208CE07430803110318013E0319D9
:1004B8005E2ACF07440803110318013E0319652A71
:1004C800D007450803110318013E03196C2AD10708
:1004D8004808C2004908C3004A08C4004B08C500C0
:1004E80018300310C50CC40CC30CC20CFF3E031D0E
:1004F800752A4208CE07430803110318013E031961
:10050800862ACF07440803110318013E03198D2AD0
:10051800D007450803110318013E0319942AD1078F
:100528000830C2000310C80DC90DCA0DCB0DC20B8F
:10053800962A4D084C07C200C301C30D4208823EEB
:10054800D20043080318013EFF3ED300C82A0130F9
:10055800C2000310CE0DCF0DD00DD10DC20BAD2AA8
:10056800CB1FB72AB82AB92A4E140130C20003108B
:10057800C80DC90DCA0DCB0DC20BBB2AFF30D2075F
:100588000318D30AFF30D307D01FCB2ACC2AAB2AB3
:10059800CC01CB1FD02AD12AED2AFF304805C20052
:1005A800FF304905C300FF304A05C4007F304B05C2
:1005B800C50045084404430442040319E42AE52A13
:1005C800E82ACC01CC0AED2A4E1CEB2AEC2AED2AAB
:1005D800E52A4C080319F12AF22A232B0130CE0709
:1005E800003003180130CF07003003180130D0075E
:1005F800003003180130D107511C032B042B232B87
:100608004E08C2004F08C3005008C4005108C50076
:100618000130C600450DC50CC40CC30CC20CC60B7A
:100628000E2B4508D1004408D0004308CF004208EB
:10063800CE000130D2070318D30A0030D30753087D
:10064800803AFF0080307F02031D2C2BFF305202BE
:10065800031C2F2B302B3B2B7F3083120313D1002D
:100668008030D0000030CF000030CE00702B8312D5
:1006780003135308803AFF0080307F02031D462B86
:10068800013052020318492B4A2B562B0030831293
:100698000313D1000030D0000030CF000030CE006E
:1006A800C701702B831203135208C2004208CD0001
:1006B800FF30CE05FF30CF057F30D0050030D105A3
:1006C8004D1C672B682B692BD0174D08C2000310EF
:1006D800420CC3004308D1004708C2004208D104B5
:1006E8005108BD005008BC004F08BB004E08BA00B6
:1006F80008008312031357088039DC005C08E40003
:100708005708DC005C07DD005D08E600D61F8D2B6E
:100718008E2B8F2B661466080319932B942BA42B0E
:10072800660A031D982B992BA12B0030D7000030A7
:10073800D6000030D5000030D400D617D701AC2B36
:100748000030D7000030D6000030D5000030D4008B
:100758005B088039DC005C08E5006508640603195D
:10076800B62BB72BB82B64175B08DC005C07DD00E1
:100778005D08E500DA1FC12BC22BC32B6514650881
:100788000319C72BC82BD82B650A031DCC2BCD2BDF
:10079800D52B0030DB000030DA000030D900003003
:1007A800D800DA17DB01E02B0030DB000030DA007C
:1007B8000030D9000030D800660865020318E52B20
:1007C800E62B2A2C641FE92BEA2BEE2B8030DC0069
:1007D8005C08E4066608DC005C08E7006508DC00E5
:1007E8005C08E6006708DC005C08E5005408DC00EB
:1007F8005C08E7005808DC005C08D4006708DC00E7
:100808005C08D8005508DC005C08E7005908DC00E3
:100818005C08D5006708DC005C08D9005608DC00D5
:100828005C08E7005A08DC005C08D6006708DC00B2
:100838005C08DA005708DC005C08E7005B08DC00AD
:100848005C08D7006708DC005C08DB00E701650886
:10085800DC00DD015D08DF0066085C02DE00031CC9
:10086800DF035F08803AFF0080307F02031D3E2CC3
:100878001A305E02031C412C422C7F2C8312031376
:100888005708560455045404031D4B2C4D2C0130B5
:100898004E2C0030DC005C08E7000030D700003048
:1008A800D6000030D5000030D4006508DC005C08B4
:1008B800E600872C671C612C622C6B2C6708DC0017
:1008C80003105C0C0138DD005D08E7006D2C031097
:1008D800E70C541C702C712C722CE7170130DC00CB
:1008E800570DD70CD60CD50CD40CDC0B742C01305E
:1008F800DC005C08E6078312031365086602031C24
:10090800862C872C5E2C641B8A2C8B2CD62C660894
:10091800031D8F2C902C992C0030D7000030D60066
:100928000030D5000030D400042E5808D4075908E8
:1009380003110318013E0319A22CD5075A08031105
:100948000318013E0319A92CD6075B0803110318E5
:10095800013E0319B02CD707571CB32CB42C8A2D91
:10096800671CB72CB82CC12C6708DC0003105C0C82
:100978000138DD005D08E700C32C0310E70C541CA8
:10098800C62CC72CC82CE7170130DC00570DD70C34
:10099800D60CD50CD40CDC0BCA2C0130DC005C085E
:1009A800E6078A2D5708803AFF005B08803A7F02E5
:1009B800031DE82C5A085602031DE82C5908550255
:1009C800031DE82C580854020318EB2CEC2C442D7A
:1009D800FF30DC00FF30DD00FF30DE00FF30DF00DD
:1009E8005808E0005908E1005A08E2005B08E300F3
:1009F8005408E0025508031C550F032D042DE1028D
:100A08005608031C560F092D0A2DE2025708031C2D
:100A1800570F0F2D102DE3026008DC07610803183B
:100A2800610F172D182DDD0762080318620F1D2DA1
:100A38001E2DDE0763080318630ADF075F08D70067
:100A48005E08D6005D08D5005C08D4008030DC0064
:100A58005C08E406E709E70A6708031D342D352D0D
:100A6800522D0130D407003003180130D50700306B
:100A780003180130D607003003180130D707522D6C
:100A88005808D4025908031C590FD5025A08031CE8
:100A98005A0FD6025B08031C5B0FD702570856048F
:100AA80055045404031D592D5A2D862D6708031D1E
:100AB8005E2D5F2D862D0030D7000030D600003027
:100AC800D5000030D400042E0130DC000310D40D12
:100AD800D50DD60DD70DDC0B6A2DE71F742D752D9E
:100AE800762D5414671C792D7A2D7D2D0314E70D6E
:100AF8007F2D0310E70D66080319832D842D862D9D
:100B08000130E602D61F892D8A2D682DE501E71FE1
:100B18008E2D8F2D9D2D67087F390319942D952DC6
:100B2800982DE501E50A9D2D541C9B2D9C2D9D2D8E
:100B3800952D65080319A12DA22DD62D0130D407B6
:100B4800003003180130D507003003180130D607EC
:100B5800003003180130D707571CB32DB42DD62DFC
:100B68005408DC005508DD005608DE005708DF0091
:100B78000130E0005F0DDF0CDE0CDD0CDC0CE00B5F
:100B8800BE2D5F08D7005E08D6005D08D5005C085A
:100B9800D400660A0319D12DD22DD62D0130DC00E0
:100BA8005C08E607660A0319DA2DDB2DE02D6608D6
:100BB800031DDF2DE02DEE2D0030D7000030D600CC
:100BC8000030D5000030D4006608031DEC2DED2D53
:100BD800EE2DE401661CF12DF22DF42DD617F82D1B
:100BE8007F30DC005C08D6056608DC0003105C0C6E
:100BF800DD005D08D700E41F022E032E042ED71750
:100C080008008312031327088039A8002808B100B8
:100C18002708A8002807A9002908B800A61F152E2C
:100C2800162E172E3814380803191B2E1C2E2C2E9E
:100C3800380A031D202E212E292E0030A70000304F
:100C4800A6000030A5000030A400A617A701342E86
:100C58000030A7000030A6000030A5000030A40036
:100C680023088039A8002808B1062308A800280707
:100C7800A9002908B900A21F422E432E442E391478
:100C880039080319482E492E592E390A031D4D2EAD
:100C98004E2E562E0030A3000030A2000030A100D6
:100CA8000030A000A217A301612E0030A30000307D
:100CB800A2000030A1000030A00023082204210473
:100CC8002004031D682E692E822E0030A7000030F4
:100CD800A6000030A5000030A4008030A6047F30B4
:100CE800A7043108A8002808A7042708A300260895
:100CF800A2002508A1002408A000E12F3808031D40
:100D0800862E872E902E0030A3000030A2000030DF
:100D1800A1000030A000E12F3808A800A901290887
:100D2800AB0039082802AA00031CAB032A087F3E3F
:100D3800B2002B080318013E003EB3002708B0009C
:100D48002608AF002508AE002408AD000030A70033
:100D58000030A6000030A5000030A4000030B70025
:100D68000030B6000030B5000030B400B901062FDD
:100D780039080319C02EC12EE12E0130A800031036
:100D8800AD0DAE0DAF0DB00DA80BC32E0130A800F0
:100D98000310A40DA50DA60DA70DA80BCC2EB71FEB
:100DA800D62ED72ED82E24140130A8000310B40D47
:100DB800B50DB60DB70DA80BDA2E23083002031DAA
:100DC800EF2E22082F02031DEF2E21082E02031DED
:100DD800EF2E20082D02031CF22EF32E022F3717B8
:100DE8002008AD022108031C210FAE022208031CB3
:100DF800220FAF022308031C230FB0020130A80002
:100E08002808B9071A303902031C0B2F0C2FBC2EE7
:100E180030082F042E042D040319132F142F332FF9
:100E28003414332F0130A8000310A40DA50DA60D0E
:100E3800A70DA80B182FB71F222F232F242F2414F8
:100E48000130A8000310B40DB50DB60DB70DA80BF1
:100E5800262FFF30B2070318B30AFF30B307A61FC7
:100E6800362F372F162FB901B71F3B2F3C2F582F7E
:100E7800FF303405A800FF303505A900FF303605DE
:100E8800AA007F303705AB002B082A042904280460
:100E980003194F2F502F532FB901B90A582F241C6B
:100EA800562F572F582F502F390803195C2F5D2FB5
:100EB8008E2F0130A407003003180130A507003039
:100EC80003180130A607003003180130A707271CB4
:100ED8006E2F6F2F8E2F2408A8002508A90026083A
:100EE800AA002708AB000130AC002B0DAB0CAA0CF4
:100EF800A90CA80CAC0B792F2B08A7002A08A60070
:100F08002908A5002808A4000130B2070318B30A6D
:100F18000030B3073308803AFF0080307F02031D9A
:100F2800972FFF303202031C9A2F9B2FA92FFF30D7
:100F380083120313B2000030B3000030A700003062
:100F4800A6000030A5000030A40083120313330864
:100F5800803AFF0080307F02031DB42F0130320237
:100F68000318B72FB82FC52F83120313B201B3018B
:100F78000030A7000030A6000030A5000030A40013
:100F8800B101831203133208A8002808B800381CDE
:100F9800CE2FCF2FD12FA617D52F7F30A800280806
:100FA800A6053808A8000310280CA9002908A700DE
:100FB8003108A8002808A704792E08000A128A1503
:100FC800A3250A128A118316031332088312031306
:0A0FD8008800E72F0A128A11102882
:101A5A00F800F401F5017008F200F3017208F600CB
:101A6A007308F700781C3A2D3B2D412D7608F407B0
:101A7A000318F50A7708F50701300310F60DF70D7C
:101A8A00FF3E031D422D0310F80C7808031D4E2D4E
:101A9A004F2D372D7508F1007408F00008008312E5
:101AAA0003138C1D592D5A2D982D130883160313D1
:101ABA00AB002B08B200A501FF30AB002B08A60033
:101ACA000030A700A800F430A9000130AA003208AB
:101ADA000A128A1594260A128A15831603132608EF
:101AEA00B1002508B0003108AC003008AB00031083
:101AFA00AC0CAB0C0310AC0CAB0C2B08831203130D
:101B0A0095008316031330080339AB00AB0E83121A
:101B1A0003131708831603132B06CF392B068312D8
:101B2A00031397008C11831603132F08FF002E0846
:101B3A008A002D0E8300FE0E7E0E090083160317FF
:101B4A0088018901831603130F088F3940388F00E3
:101B5A000F14A03085008312031385010130831608
:101B6A0003138900831203138901183083160313A0
:101B7A0087008312031387018316031388018312D4
:101B8A00031388011408F0390438940014129416C7
:101B9A008316031314179413831203138C118316D9
:101BAA0003138C150B178B1707157C3092008312C1
:101BBA00031397013F3097051708F0390C3897003F
:101BCA001F3095001708CF39103897008C10033052
:101BDA00920412158C1CF22DF32DEF2D8C10831606
:101BEA000313071108000310831203136A0D6B0D08
:101BFA0083160313A000200883120313ED006D0857
:101C0A00031D082E092E122E0030EB000030EA00C8
:101C1A000030E9000030E800932E680883160313A9
:101C2A00A00083120313690883160313A100831209
:101C3A0003136A0883160313A200831203136B08A3
:101C4A0083160313A3001F300310A30CA20CA10CCC
:101C5A00A00CFF3E031D292E2008A400240883128D
:101C6A000313EC00EA17FF30E805FF30E905FF30FF
:101C7A00EA050030EB059630ED02ED1F452E462EA3
:101C8A00642E6D08803A973E03184C2E4D2E4E2E28
:101C9A00092E01300310EB0CEA0CE90CE80CFF3EAC
:101CAA00031D4F2E013083160313A0002008831250
:101CBA000313ED07031D622E632E4E2E832E203052
:101CCA006D02031C692E6A2E7E2E092E01308316A0
:101CDA000313A000031083120313E80DE90DEA0DA4
:101CEA00EB0D83160313A00B6F2E0130831203131F
:101CFA00ED026D08031D822E832E6B2E6C080319CC
:101D0A00872E882E932EE809E909EA09EB09E80AE1
:101D1A000319E90A0319EA0A0319EB0A08008312EC
:101D2A000313EE00831603132708F0002808F100B6
:101D3A00F201F30100300A128A1546270A128A159F
:101D4A00730883120313DB007208DA007108D900E2
:101D5A007008D8008316031327082902F000280800
:101D6A00031C280A2A02F100F201F30100300A12C8
:101D7A008A1546270A128A15730883120313A700C5
:101D8A007208A6007108A5007008A4008316031340
:101D9A0025082602F000F101031CF103F201F11BF0
:101DAA00F2037208F30001300A128A1546270A1252
:101DBA008A15730883120313A3007208A20071081C
:101DCA00A1007008A0000A128A1105260A128A15B3
:101DDA00831203132308C1002208C0002108BF0090
:101DEA002008BE00831603132508831203136E020C
:101DFA00F000F101031CF103F201F11BF203720876
:101E0A00F30001300A128A1546270A128A15730846
:101E1A0083120313BD007208BC007108BB0070086E
:101E2A00BA000A128A111C200A128A158312031395
:101E3A003D08D7003C08D6003B08D5003A08D40034
:101E4A000A128A117D230A128A158312031357086C
:101E5A00EB005608EA005508E9005408E8000A129F
:101E6A008A15F8250A128A1583120313690883163C
:101E7A000313A60083120313680883160313A5002D
:101E8A000800F800780803194B2F4C2F602FF31F16
:101E9A004F2F502F602F7009FA007109FB00720949
:101EAA00FC007309FD00FA0A0319FB0A0319FC0A6C
:101EBA000319FD0A682F7308FD007208FC007108F7
:101ECA00FB007008FA007308720471047004031DA1
:101EDA006F2F702F792F0030F3000030F20000309E
:101EEA00F1000030F000FF2F9630F4007408F9007A
:101EFA008B2F0130F4007408F90701300310FD0C30
:101F0A00FC0CFB0CFA0CFF3E031D832FFE307D05F3
:101F1A00031D902F912F7E2FAD2F0130F4007408EE
:101F2A00F9070130FA07003003180130FB070030C7
:101F3A0003180130FC07003003180130FD07013097
:101F4A000310FD0CFC0CFB0CFA0CFF3E031DA52F25
:101F5A00FF307D05031DB22FB32F922FBF2F013003
:101F6A00F9020130F4000310FA0DFB0DFC0DFD0D12
:101F7A00F40BB82FFC1BC22FC32FC92F02307902D2
:101F8A000318C82FC92FB42F7918CC2FCD2FD52FCE
:101F9A00FF30FA05FF30FB057F30FC05FF30FD05F9
:101FAA000310F90C7908F400F501F601F70118306D
:101FBA000310F40DF50DF60DF70DFF3E031DDD2F91
:101FCA007408FA047508FB047608FC047708FD0413
:101FDA0078080319F12FF22FF72FF31FF52FF62F99
:101FEA00F72FFD177D08F3007C08F2007B08F1004B
:061FFA007A08F000080067
:08400000FF3FFF3FFF3FFF3FC0
:04400E00D420FF3F7C
:00000001FF
